S00D000053656E73652E7372656319
S113000019C033C032C031C030C02FC031C02DC080
S11300102CC02BC02AC029C028C027C026C025C098
S113002024C0FAC222C073C420C01FC01EC01DC099
S11300301CC01BC011241FBECFEFCDBFDFE3DEBF4A
S11300401EE3A0E0BEE3E2EAFBE102C005900D92EC
S1130050AE33B107D9F72EE3AEE3BEE301C01D9280
S1130060A139B207E1F702D197CDCACF67D308957A
S11300701F920F920FB60F9211242F933F934F9319
S11300805F936F937F938F939F93AF93BF93EF93FC
S1130090FF938CD282E080934301FF91EF91BF9153
S11300A0AF919F918F917F916F915F914F913F910C
S11300B02F910F900FBE0F901F901895E0E0F6E07F
S11300C0168A118281E08283138214821486118637
S11300D012868AE086831582148A158A128A138A04
S11300E085E0808380E00895E0E0F6E0868381E0A7
S11300F08087089580910B06817008958091100681
S1130100909111060895F0DFF5DF8823E9F3F6DF17
S1130110E0E0F6E023852160238708951092403EB5
S113012008951092403E89B1877F89B9089559D3C3
S113013008958091423E48D310923E3E89B1877F14
S113014089B9089591E088ED84BF909341000895A2
S11301508091463E20E1829FC00111249091453E4A
S1130160892BE0E0FEE384838091463E20E1829F78
S1130170C00111249091453E892B82878091463E8F
S113018020E1829FC00111249091453E892B808BF0
S11301908091443E85838091443E83878091443E90
S11301A0818B08958091403E811139C00AD3809398
S11301B0413E8091413E8D3850F48A3860F580315B
S11301C0D9F008F451C08158833028F14DC0813FE3
S11301D069F018F4803F31F047C08A3FB9F08B3F93
S11301E0C1F042C081E080933F3E3EC0B1DFAAD15E
S11301F082E080933F3E38C080E090E0F6D181E019
S113020090E0F3D182E090E0F0D12EC01092123E43
S11302102BC098DF29C081E08093403E25C08091A7
S1130220403E813009F5CDD29091413E933899F00A
S113023028F4913851F0923859F016C09B3881F067
S11302409C3881F09A3881F409C08093143E0CC024
S11302508093133E09C08093473E06C08093463E78
S11302608093453E8093443EBCD20895FFDE78944B
S113027089B1877F89B982B1082E000C990B8095CA
S11302809095292F221F2227221F30E02295329594
S1130290307F3227207F322796B1929596959770BA
S11302A081E0982790FBEE24E0F8F12CEE0CFF1C83
S11302B0EE0CFF1CEE0CFF1C96B192959F709827D4
S11302C0092F017010E0000F111F000F111F96B1CC
S11302D096959695969598279170C92F90E0D92F69
S11302E0CC0FDD1F96B19695969589278170E22AE9
S11302F00E29C02B8C2B8F5F8093433E8091433E0D
S1130300880F80931C0889E990E07FD282ED90E009
S113031089D287E990E093D28EE890E09DD281E97A
S113032090E0A7D281E990E015D355D244D28091D0
S1130330123E8111FCCFC0E010E080913F3E82303C
S113034041F505D180E090E041D1182F111F11270C
S1130350111F81E090E03AD1807890E00024880F6A
S1130360991F001C880F991F001C892F902DD12FD5
S1130370D82B82E090E02AD1807890E096958795FA
S1130380929582958F7089279F7089271D2F182B2E
S113039068C080913F3E813009F063C039C08AE073
S11303A0B2DE7C0185B1816085B9E7E8F3E131977C
S11303B0F1F700C000008AE0A6DE25B12E7F25B942
S11303C0E7E8F3E13197F1F700C000008E199F09C7
S11303D09C0122F422273327281B390B8091143ED9
S11303E090E02817390708F00F5F20E030E008C0DC
S11303F087E893E10197F1F700C000002F5F3F4FBA
S11304008091473E90E02817390790F3219603C066
S1130410C0E0D0E000E08091133E90E0C817D90717
S113042008F4BDCF6091133E70E080E090E0FDDA07
S11304306B017C01602F70E080E090E0F8DAA701A6
S1130440960152DAC3DA70E080E090E0EEDA20E060
S113045030E040E05FE377DB882314F4C0E001C0C0
S1130460C1E0812F8C2B9091423E891709F465CF0E
S11304708093423E89B1886089B981E080933E3E91
S113048080913E3E8111FCCF58CFE4E1F4E08081BD
S1130490877F80838081887F84608083E5E1F4E0C6
S11304A08081877F80838081887F84608083E6E188
S11304B0F4E08081877F80838081887F846080836B
S11304C0089581E080934A3E08958F5F8093483E6B
S11304D00895CF93DF9380E39EE3D6D889E69EE325
S11304E00BD9C0E0D0E009C0BE0180E39EE372D91D
S11304F0BE0180E39EE38DD92196C330D105A0F3DC
S1130500C0E0D0E00EC0AE01440F551F440F551F8C
S11305104C0F5D1F465A514C6C2F85E19EE3BBD2B4
S11305202196C330D10578F380E0DF91CF9108950F
S11305309091410192FDFCCF90E080934A01909309
S11305404B01089580E2F4DFA0DFC3DF08958091BA
S11305504B3E813049F461E672E080E39EE3D6D8F5
S1130560811102C010924B3E80914A3E8130E9F4E1
S113057010924A3E0BD7811108C085E19EE3AAD2AE
S1130580882329F081E0A1DF02C080E09EDFE091B2
S1130590153EF091163E8081882324F481E08093F7
S11305A04B3E089581E08093493E08958091593EE1
S11305B08F5F8093593E843140F01092593E81E020
S11305C080934B3E84E190E05BD20895E091193E24
S11305D0F0911A3E9C01220F331F820F931F880F44
S11305E0991FE80FF91F80810895CF93DF93EC01E1
S11305F0BC0180E39EE30DD9AE01440F551F440FA7
S1130600551F4C0F5D1F465A514C6C2F85E19EE3DC
S113061042D2DF91CF9108951F920F920FB60F929D
S113062011242F933F934F935F936F937F938F93F3
S11306309F93AF93BF93EF93FF932CD9FF91EF91C7
S1130640BF91AF919F918F917F916F915F914F91E6
S11306503F912F910F900FBE0F901F90189580E03F
S1130660089540E068ED81E690E08FD180E0089540
S1130670789480E0089580E008C0E82FF0E0E05F1F
S1130680FB4F9081986090838F5F8830B0F380E057
S113069008C0E82FF0E0E05DFB4F90819860908304
S11306A08F5F8830B0F380E008C0E82FF0E0E05BB3
S11306B0FB4F9081986090838F5F8830B0F30895EA
S11306C0E1E3F4E08081887F846080838081877F98
S11306D08083F4DC089581B18B7F81B980B184601B
S11306E080B9E2E1F4E08081877F808380818F7725
S11306F080838081887F8083A0E0B2E011968C9112
S11307001197806111968C93119781B18D7F81B976
S113071080B1826080B9E1E1F4E08081877F8083E9
S113072080818F7780838081887F808311968C91EC
S11307301197806111968C9312D108959CDF80B13A
S11307408F7780B9E7E1F4E080818860808385B1A8
S11307508E7F85B984B1816084B984B18B7F84B97B
S1130760E2E3F4E080818860808384B1877F84B988
S1130770E3E3F4E080818860808384B18F7E84B970
S1130780E4E3F4E080818860808384B18F7D84B960
S1130790E5E3F4E080818860808389B1877F89B94B
S11307A088B1886088B95DDFF4D08ADF61DFFDD06D
S11307B092DF55DF0895E0E1F8E08185816081876B
S11307C0089580911D080895E0E1F8E08587828509
S11307D0836082870895E0E1F8E081858160818704
S11307E0089583E080931A080895E0E1F8E0838592
S11307F0806C838782E082870895E091853EF09142
S1130800863E309709F0099508958093853E90932C
S1130810863E0895E091833EF091843E309709F03E
S1130820099508958093833E9093843E0895E091C2
S1130830873EF091883E309709F00995089580939A
S1130840873E9093883E0895E091813EF091823EE8
S1130850309709F0099508958093813E9093823EE4
S11308600895E0918B3EF0918C3E309709F0099504
S1130870089580938B3E90938C3E0895E091893E39
S1130880F0918A3E309709F00995089580911B08EC
S113089083FF02C0E6DF089580911B0882FF02C037
S11308A0EDDF089580911B0886FF09C080911B0825
S11308B080FF05C0BCDF81E080933B3E08958091BA
S11308C01B088823BCF480911B0881FF11C0809110
S11308D01B0884FF04C080913B3E882339F01092AA
S11308E03B3E8BDF83E080931A0808957EDF0895F2
S11308F091DF089580911B0886FF08C080911B0832
S113090080FD04C0A1DF82E080931A0808951F923D
S11309100F920FB60F9211242F933F934F935F932F
S11309206F937F938F939F93AF93BF93EF93FF93B3
S1130930ADDFFF91EF91BF91AF919F918F917F9127
S11309406F915F914F913F912F910F900FBE0F9038
S11309501F9018958093893E90938A3E089581EE66
S11309608093190880E090E05DDF80E090E04DDF47
S113097080E090E064DF80E090E06EDF80E090E073
S113098078DF80E090E0E6DF0895FC0164BF4083F7
S11309900895809141018111FCCFE0E4F1E081E808
S11309A0808382E0828380E0089580E00895CF927E
S11309B0DF92FF920F931F93CF93DF93EC01AE81ED
S11309C0BF81EB01CC0FDD1FC60FD71FCA0FDB1F82
S11309D0FA80FC0144815581E6E0E69F9001E79F9F
S11309E0300D11248A01020F131FF8012281338173
S11309F0F90121813281F80104811581201B310B19
S1130A00E8812E1B3109EC01EA81FB81008111810F
S1130A10FA0140E050E04017510739F146175707F3
S1130A20F9F012968C911297F8121AC080818558A9
S1130A308230E8F0C480D58082819381EC01898181
S1130A409A81C816D90660F48C199D09CC91D0E01E
S1130A50C817D90728F48C1B9D0B2817390738F0C1
S1130A604F5F5F4F13963696D6CF80E001C081E08A
S1130A70DF91CF911F910F91FF90DF90CF90089558
S1130A8020914C3E30914D3E820F931F80934C3EFB
S1130A9090934D3E08950097D9F041155105C1F04A
S1130AA026E0629FB0011124DC011496ED91FC91C3
S1130AB01597E60FF71F21E0208314968D919C91E2
S1130AC01597FC01E60FF71F4283538380E00895D6
S1130AD08BE008952F923F924F925F926F927F9294
S1130AE08F929F92AF92BF92CF92DF92EF92FF923A
S1130AF00F931F93CF93DF93009709F47CC3EC010A
S1130B00A12CB12C812C912C212CD12C5524539423
S1130B1033E0C32E45E8642E56E8752E62E0362E87
S1130B2078E0472EEA81FB818081918188169906BD
S1130B3008F0A4C17501EE0CFF1CEC81FD81EE0DE3
S1130B40FF1DA281B3819C919E7109F050820C819A
S1130B501D810E0D1F1DD8018C91843009F49DC098
S1130B6038F48230D1F008F045C0813059F07FC1AB
S1130B70853809F4BDC0863809F4F3C0873009F01C
S1130B8076C134C1911165C1F80130828C819D8197
S1130B90FC01EE0DFF1D41825CC1D80111962C9120
S1130BA01197222329F11296ED91FC911397253088
S1130BB018F0818192810EC0D80114968D919C9178
S1130BC01597418152818417950769F04817590791
S1130BD030F4019714968D939C93159704C0019655
S1130BE0F801848395832150D80111962C9331C147
S1130BF0F8012BC1D80114962D913C9115971296AA
S1130C00ED91FC911397418152812417350709F422
S1130C102EC18E819F8142175307F8F4EA81FB812C
S1130C20241B350BDC01AA0DBB1D8C9190E00580C3
S1130C3002C0959587950A94E2F7992728173907F2
S1130C4008F415C18481882309F411C187E0F801EF
S1130C508083EA81FB81248119C0FC01EA0DFB1D1C
S1130C60421B530B808190E04817590708F4FFC0DA
S1130C708281882329F0B401CE0199DE8111F7C065
S1130C80E4E0D801EC93EA81FB8122818C819D818F
S1130C90FC01EE0DFF1D2183DCC0D80114962D91BB
S1130CA03C9115971296ED91FC9113978181928155
S1130CB08217930708F4BAC0EE81FF81EA0DFB1D89
S1130CC0821B930B208130E02817390708F0C4C039
S1130CD08281882329F0B401CE0169DE8111C7C065
S1130CE0F8018181882309F46AC081508183B1C0ED
S1130CF0E881F981AA81BB8118968C918383EC8168
S1130D00FD81EE0DFF1D44815581A281B3811196B1
S1130D108D919C91129784179507C0F0AE81BF8185
S1130D20AA0DBB1D6C91262F30E011967C917F5F3C
S1130D3002C0359527957A95E2F7841B950B621BC3
S1130D40262F30E02817390708F48FC07082EA8113
S1130D50FB8122818C819D81FC01EE0DFF1D21838D
S1130D6042C0D80114966D917C9115971296ED911D
S1130D70FC911397218132812617370758F4119675
S1130D808C911197811102C0CC926FC08150F801EF
S1130D9081836BC0EE81FF81EA0DFB1D8081482FAA
S1130DA050E091819F5F02C0559547959A95E2F76F
S1130DB0261B370B841B90E08217930760F4D8013D
S1130DC06C92EA81FB8123818C819D81FC01EE0D73
S1130DD0FF1D21834AC0F8018181811102C0C082B4
S1130DE044C0815081832224239433C0F801248198
S1130DF035810280F381E02D8181928182179307EE
S1130E0058F5281B390BEE81FF81EA0DFB1D80810B
S1130E1090E0EA81FB81058002C0959587950A944C
S1130E20E2F799272817390718F4D801CC9216C08D
S1130E30F801818181110BC050828C819D81FC015C
S1130E40EE0DFF1D0280F381E02DC08210C08150A1
S1130E508183DD24D3940BC0F801C0828C819D81F1
S1130E60FC01EE0DFF1D118202C022242394FFEF2A
S1130E708F1A9F0A83E0A80EB11C54CEE881F98131
S1130E80808187FF23C040E050E020E030E0EA8129
S1130E90FB81808191812817390798F4EC81FD81C9
S1130EA0E40FF51FA281B3818C9180FD05C0908170
S1130EB0977F11F081608C932F5F3F4F4A5F5F4FA4
S1130EC0E6CFE881F98180818F778083D11007C0D4
S1130ED0E881F98121106FC080818E7F6EC0EA8124
S1130EE0FB8181858823A1F3E881F9818081806871
S1130EF08083EA81FB818185813051F740E050E0B5
S1130F0020E030E096E0D92EEA81FB816081718196
S1130F1026173707E8F60C811D81FA01EE0FFF1F33
S1130F20E00FF11F8081982F977FA1F1853811F090
S1130F308330B1F5EE80FF80D701A40FB51F129660
S1130F40BC90BB2039F180E090E0C12C8617970754
S1130F50F8F428173907D1F0D89ED001D99EB00DE6
S1130F601124A00FB11FAC91A43011F0A63871F474
S1130F70DC01AA0FBB1FA80FB91FAE0DBF1D12962F
S1130F80AC91BA1203C0CB01CC24C3940196DECF3A
S1130F90C11006C00280F381E02D80818E7F05C0E0
S1130FA00280F381E02D8081816080832F5F3F4F39
S1130FB04D5F5F4FA9CF80818160808380914C3EDB
S1130FC090914D3EE881F98121813281A9014853F4
S1130FD05F4F4817590738F4821B930BAA24A39434
S1130FE0A3E0BA2E44C08217930710F080E004C136
S1130FF0821B930B0197893C9105C0F3EFCF885C6A
S11310009109E881F9812181328128533F4F21835D
S113101032832381211196C02481222311F021508F
S11310202483E881F9812581222311F0215025832D
S11310308A809B80D40116962C91169721111BC08F
S11310408A809B80F4012781211148C0EA81FB81B9
S11310502381222361F020E030E0A0E0B0E0EA81C7
S1131060FB8140815181A417B50708F46EC0893C07
S1131070910528F6BBCF08811981F801248121113B
S1131080DFCFED90FC9060E070E040E050E04E1562
S11310905F05F1F0EC81FD81E60FF71F208123301D
S11310A011F0283081F424813581C280D380D601A7
S11310B01196CD90DC9012972C153D0520F42F5FEE
S11310C03F4F248335834F5F5F4F6A5F7F4FDFCF8E
S11310D0F4012681D80114962C93B2CF088119818A
S11310E0D80115962C912111B1CFE080F18060E0F8
S11310F070E040E050E04E155F05F1F0EC81FD81B9
S1131100E60FF71F2081233011F0283081F4248169
S11311103581C280D380D6011196CD90DC90129790
S1131120C216D30620F421503109248335834F5F3E
S11311305F4F6A5F7F4FDFCFF4012781D801159697
S11311402C9384CF2150238381CFA901440F551FB1
S1131150EC81FD81E40FF51F6081653809F047C01B
S11311606181662319F06150618341C0A0826C8162
S11311707D81FB01E40FF51F0280F381E02DB08235
S1131180EE81FF81E20FF31FD280DD2081F140E088
S113119050E000E010E0EA81FB8160817181061774
S11311A0170728F5EE81FF81E40FF51F6281D6123F
S11311B019C0BA01660F771FEC81FD814F01860EBD
S11311C0971EF401E280F380F701F080F0FE0AC07C
S11311D0F401A082EC81FD81E60FF71F0280F38108
S11311E0E02DB0820F5F1F4F4D5F5F4FD4CF11963C
S11311F02D5F3F4F34CF8BE0DF91CF911F910F9143
S1131200FF90EF90DF90CF90BF90AF909F908F9022
S11312107F906F905F904F903F902F9008958091B2
S1131220513E9091523EA0918D3EB0918E3EED91F3
S1131230FC9111974081518125E0289FB001299F9D
S1131240700D112420E030E084179507A8F414965B
S1131250ED91FC911597E20FF31FE60FF71FE08164
S11312602B5F3F4FE0FD02C00196EECF8093513ECD
S11312709093523E80E008951092513E1092523E57
S113128081E00895BC01E0918D3EF0918E3E86E0B0
S1131290869F9001879F300D1124A281B381A20FF4
S11312A0B31F11968C9180932A06A281B381A20F59
S11312B0B31F8C918093260695E0969FA001979F7B
S11312C0500D1124A481B581A40FB51F13968C91E0
S11312D080931A06A481B581A40FB51F14968C912E
S11312E080931B06A481B581A40FB51F8C9181FD49
S11312F09C9384819581DC01A40FB51F8C918C7122
S113130069F4A281B381A20FB31F1496AC91A29584
S1131310AF70B0E0A456B4468C9101C08FE38093C3
S11313201C06A281B381A20FB31F12968C918B313C
S113133010F48C5F01C08FE180930506A281B38114
S1131340A20FB31F15968C9180930106A281B381DD
S1131350A20FB31F13968C9182958F7080931906F8
S113136082819381FC01E20FF31F83818F7080617E
S1131370809302068091180683608093180681E8A2
S11313808093000681E08093080608953F924F926F
S11313905F926F927F928F929F92AF92BF92CF9201
S11313A0DF92EF92FF920F931F93CF93DF9380917D
S11313B0503E882309F448C1A0918D3EB0918E3EE1
S11313C0C0908F3ED090903E00E010E060E070E06E
S11313D0E12CF12C80E033243394D1E84D2E882481
S11313E08A94992493946D907C901197F3012081B1
S11313F03181E216F30608F023C1E60129913991FF
S11314006E011496ED91FC911597E60FF71F40813C
S11314104C7150E0569547955695479541155105A1
S113142021F041305105B9F002C11296CD91DC9101
S11314301397C00FD11F4C814F709D81491710F431
S1131440941B01C090E002C0369527959A95E2F767
S113145021833283EDC012964D915C911397400F16
S1131460511FEA010D8002C0369527950A94E2F7D0
S113147021833283A380B4802115D2E03D0720F07C
S11314802F5F314091E005C0A401421B530B9A0128
S113149090E0E3015A80D0E45D1205C036952795AB
S11314A0992319F009C0992339F04FEFA416B40613
S11314B031F440828EE007C07724739401C0712C0C
S11314C02A30310590F41496ED91FC911597E60FAE
S11314D0F71F908197FF30821496ED91FC91159738
S11314E0E60FF71FA382B482A3C0E501CD2FDD2749
S11314F0C295CF709C2FA50144275F70652EA5016E
S1131500407F5527529542954F7045275F70452778
S11315105A2D5F70A52EC43030F09370D695C795C0
S1131520D695C7959C0F71103CC050E8550D5230AC
S113153010F456E007C053E005C0951768F49F5FA8
S11315402F5C3109203D3105C0F706C0CFE06C1691
S113155049F063942551310926313105B8F7DFE0AC
S11315606D120EC0951720F49F5FD5E06D2E08C054
S1131570CFE06C2E05C04F3049F04F5F2250310947
S113158023303105C0F74F3009F065C04FE06416D1
S113159081F1639445E05FC0992361F091502F5C21
S11315A03109203D3105C0F705C0662041F06A9439
S11315B02551310926313105C0F761100DC0992339
S11315C021F091505AE0652E07C0612C05C04423D8
S11315D041F041502250310923303105C0F7411107
S11315E010C06620E9F16A944AE023303105C8F658
S11315F008C059132FC02330310540F14FE0A42E09
S11316004FE0943018F0990F990F9950C0E14C9F16
S1131610A001112456294A29C92FD0E0DC2FCC2758
S1131620D295D07F4C2B5D2B4383548301C0FFCFD5
S1131630DFEFED1AFD0A6B5F7F4F0A5F1F4FD3CEBA
S113164092E09093503E0EC083E00CC04FE02FE038
S1131650A22ED7CF4FE02330310508F073CFD1CF7E
S113166040E0CFCFDF91CF911F910F91FF90EF908A
S1131670DF90CF90BF90AF909F908F907F906F90AE
S11316805F904F903F900895CF93DC01892B79F1BF
S1131690ED91FC9111976081718140E050E020E070
S11316A030E090E02617370779F01296ED91FC911F
S11316B01397E40FF51FC08181818C2B982B2F5F2A
S11316C03F4F4A5F5F4FEECF992399F08091503E90
S11316D0811106C09093220681E08093503E05C09C
S11316E080912206982B9093220680E003C08BE021
S11316F001C082E0CF910895009731F080938F3E2E
S11317009093903E80E008958BE0089561157105F3
S113171091F1009781F12091503E222371F1243000
S113172071F180938D3E90938E3E60934E3E709304
S11317304F3E20EC20931806DC01ED91FC912281B0
S1131740203421F420911806206205C0203841F489
S11317502091180628622093180610921E0613C0C2
S1131760213879F42091180628622093180626E877
S113177020931E0608C08BE0089583E0089581E05D
S1131780089582E0089510920006DC01ED91FC9129
S11317908481803108F080E18093030681E08093A6
S11317A00B0680930A0680933C3E1092513E1092A1
S11317B0523E35DD81110AC084E08093503E809111
S11317C0513E9091523E5EDD80E0089582E0809328
S11317D0503E08950097C9F0DC01ED91FC911197FA
S11317E0208131812617370790F045E0469F90010C
S11317F0479F300D11241496ED91FC911597E20F3B
S1131800F31F81E0808380E008958BE0089582E0F7
S11318100895FC01892BD1F1A081B1818D919C9116
S1131820119786179707A0F112969C910480F58171
S1131830E02D903459F485E0869FD001879FB00D48
S11318401124AE0FBF1F84E392E00DC09058923074
S113185080F485E0869FD001879FB00D1124AE0FE0
S1131860BF1F87E695E013968D939C93149780E0B1
S113187001C082E095E0969F9001979F300D11245E
S1131880E20FF31F90819260908308958BE0089596
S113189082E00895109200064091100650911106BE
S11318A08091513E9091523E9C01220F331FE09152
S11318B08F3EF091903EE20FF31F408351830196D7
S11318C08093513E9093523EAADC811108C084E07B
S11318D08093503E8091513E9091523ED3CCE09102
S11318E04E3EF0914F3E09940E94880C0C94690D71
S11318F00E94620D58F00E945B0D40F029F45F3F96
S113190029F00C94520D51110C949D0D0C94580D0A
S11319100E947A0D68F39923B1F3552391F3951B33
S1131920550BBB27AA2762177307840738F09F5FFC
S11319305F4F220F331F441FAA1FA9F335D00E2E69
S11319403AF0E0E832D091505040E695001CCAF7D6
S11319502BD0FE2F29D0660F771F881FBB1F261799
S113196037074807AB07B0E809F0BB0B802DBF0170
S1131970FF2793585F4F3AF09E3F510578F00C943F
S1131980520D0C949D0D5F3FE4F3983ED4F386957D
S113199077956795B795F7959F5FC9F7880F911D60
S11319A09695879597F90895E1E0660F771F881F4C
S11319B0BB1F621773078407BA0720F0621B730BFF
S11319C0840BBA0BEE1F88F7E09508950E94820DF0
S11319D088F09F5798F0B92F9927B751B0F0E1F0EC
S11319E0660F771F881F991F1AF0BA95C9F714C09C
S11319F0B13091F00E949C0DB1E008950C949C0DBF
S1131A00672F782F8827B85F39F0B93FCCF38695D4
S1131A1077956795B395D9F73EF490958095709531
S1131A2061957F4F8F4F9F4F0895E89409C097FBAE
S1131A303EF490958095709561957F4F8F4F9F4FA1
S1131A409923A9F0F92F96E9BB279395F6958795E5
S1131A5077956795B795F111F8CFFAF4BB0F11F4A8
S1131A6060FF1BC06F5F7F4F8F4F9F4F16C088234F
S1131A7011F096E911C0772321F09EE8872F762F85
S1131A8005C0662371F096E8862F70E060E02AF0C6
S1131A909A95660F771F881FDAF7880F96958795B2
S1131AA097F9089597F99F6780E870E060E00895DA
S1131AB09FEF80EC089500240A9416161706180662
S1131AC00906089500240A9412161306140605063E
S1131AD00895092E0394000C11F4882352F0BB0FCF
S1131AE040F4BF2B11F460FF04C06F5F7F4F8F4F32
S1131AF09F4F089557FD9058440F551F59F05F3F6D
S1131B0071F04795880F97FB991F61F09F3F79F01B
S1131B1087950895121613061406551FF2CF46959D
S1131B20F1DF08C0161617061806991FF1CF86951F
S1131B307105610508940895E894BB276627772703
S1131B40CB0197F908950E94A80D08F48FEF08952A
S1131B50990F0008550FAA0BE0E8FEEF16161706BA
S1131B60E807F907C0F012161306E407F50798F022
S1131B70621B730B840B950B39F40A2661F0232B3B
S1131B80242B252B21F408950A2609F4A140A695B7
S10F1B908FEF811D811D0895F894FFCF94
S1091B9C3F1C0B050301D0
S1131BA20001000300040002000300040004000317
S1131BB20004010A14533E263E6F3E1D3E140100EA
S1131BC214010014010003000400050014051401AB
S1111BD2363E003E5A3E030080300001010002
S9030000FC
